{
  "contractName": "Medical",
  "abi": [
    {
      "anonymous": false,
      "inputs": [],
      "name": "CreatedPatientEvent",
      "type": "event"
    },
    {
      "constant": true,
      "inputs": [],
      "name": "owner",
      "outputs": [
        {
          "internalType": "address",
          "name": "",
          "type": "address"
        }
      ],
      "payable": false,
      "stateMutability": "view",
      "type": "function"
    },
    {
      "constant": true,
      "inputs": [
        {
          "internalType": "address",
          "name": "",
          "type": "address"
        }
      ],
      "name": "patients",
      "outputs": [
        {
          "internalType": "bool",
          "name": "",
          "type": "bool"
        }
      ],
      "payable": false,
      "stateMutability": "view",
      "type": "function"
    },
    {
      "constant": true,
      "inputs": [
        {
          "internalType": "uint256",
          "name": "",
          "type": "uint256"
        }
      ],
      "name": "records",
      "outputs": [
        {
          "internalType": "string",
          "name": "patientNo",
          "type": "string"
        },
        {
          "internalType": "string",
          "name": "name",
          "type": "string"
        },
        {
          "internalType": "string",
          "name": "gender",
          "type": "string"
        },
        {
          "internalType": "string",
          "name": "hospital",
          "type": "string"
        },
        {
          "internalType": "string",
          "name": "blood",
          "type": "string"
        },
        {
          "internalType": "string",
          "name": "diabetic",
          "type": "string"
        }
      ],
      "payable": false,
      "stateMutability": "view",
      "type": "function"
    },
    {
      "constant": true,
      "inputs": [],
      "name": "getNumPatients",
      "outputs": [
        {
          "internalType": "uint256",
          "name": "",
          "type": "uint256"
        }
      ],
      "payable": false,
      "stateMutability": "view",
      "type": "function"
    },
    {
      "constant": false,
      "inputs": [
        {
          "internalType": "string",
          "name": "_patientNo",
          "type": "string"
        },
        {
          "internalType": "string",
          "name": "_name",
          "type": "string"
        },
        {
          "internalType": "string",
          "name": "_gender",
          "type": "string"
        },
        {
          "internalType": "string",
          "name": "_hospital",
          "type": "string"
        },
        {
          "internalType": "string",
          "name": "_blood",
          "type": "string"
        },
        {
          "internalType": "string",
          "name": "_diabetic",
          "type": "string"
        }
      ],
      "name": "addPatient",
      "outputs": [
        {
          "internalType": "bool",
          "name": "",
          "type": "bool"
        }
      ],
      "payable": false,
      "stateMutability": "nonpayable",
      "type": "function"
    },
    {
      "constant": true,
      "inputs": [
        {
          "internalType": "uint256",
          "name": "recordInt",
          "type": "uint256"
        }
      ],
      "name": "getPatient",
      "outputs": [
        {
          "internalType": "uint256",
          "name": "",
          "type": "uint256"
        },
        {
          "internalType": "string",
          "name": "",
          "type": "string"
        },
        {
          "internalType": "string",
          "name": "",
          "type": "string"
        },
        {
          "internalType": "string",
          "name": "",
          "type": "string"
        },
        {
          "internalType": "string",
          "name": "",
          "type": "string"
        },
        {
          "internalType": "string",
          "name": "",
          "type": "string"
        },
        {
          "internalType": "string",
          "name": "",
          "type": "string"
        },
        {
          "internalType": "address[]",
          "name": "",
          "type": "address[]"
        }
      ],
      "payable": false,
      "stateMutability": "view",
      "type": "function"
    }
  ],
  "bytecode": "0x608060405233600260006101000a81548173ffffffffffffffffffffffffffffffffffffffff021916908373ffffffffffffffffffffffffffffffffffffffff16021790555034801561005157600080fd5b506118af806100616000396000f3fe608060405234801561001057600080fd5b50600436106100625760003560e01c80630869cfbc1461006757806334461067146100c35780637d3a6796146103865780638da5cb5b14610698578063a4f3cc23146106e2578063d196b8ed14610aa8575b600080fd5b6100a96004803603602081101561007d57600080fd5b81019080803573ffffffffffffffffffffffffffffffffffffffff169060200190929190505050610ac6565b604051808215151515815260200191505060405180910390f35b6100ef600480360360208110156100d957600080fd5b8101908080359060200190929190505050610ae6565b6040518080602001806020018060200180602001806020018060200187810387528d818151815260200191508051906020019080838360005b83811015610143578082015181840152602081019050610128565b50505050905090810190601f1680156101705780820380516001836020036101000a031916815260200191505b5087810386528c818151815260200191508051906020019080838360005b838110156101a957808201518184015260208101905061018e565b50505050905090810190601f1680156101d65780820380516001836020036101000a031916815260200191505b5087810385528b818151815260200191508051906020019080838360005b8381101561020f5780820151818401526020810190506101f4565b50505050905090810190601f16801561023c5780820380516001836020036101000a031916815260200191505b5087810384528a818151815260200191508051906020019080838360005b8381101561027557808201518184015260208101905061025a565b50505050905090810190601f1680156102a25780820380516001836020036101000a031916815260200191505b50878103835289818151815260200191508051906020019080838360005b838110156102db5780820151818401526020810190506102c0565b50505050905090810190601f1680156103085780820380516001836020036101000a031916815260200191505b50878103825288818151815260200191508051906020019080838360005b83811015610341578082015181840152602081019050610326565b50505050905090810190601f16801561036e5780820380516001836020036101000a031916815260200191505b509c5050505050505050505050505060405180910390f35b6103b26004803603602081101561039c57600080fd5b8101908080359060200190929190505050610ebf565b604051808981526020018060200180602001806020018060200180602001806020018060200188810388528f818151815260200191508051906020019080838360005b838110156104105780820151818401526020810190506103f5565b50505050905090810190601f16801561043d5780820380516001836020036101000a031916815260200191505b5088810387528e818151815260200191508051906020019080838360005b8381101561047657808201518184015260208101905061045b565b50505050905090810190601f1680156104a35780820380516001836020036101000a031916815260200191505b5088810386528d818151815260200191508051906020019080838360005b838110156104dc5780820151818401526020810190506104c1565b50505050905090810190601f1680156105095780820380516001836020036101000a031916815260200191505b5088810385528c818151815260200191508051906020019080838360005b83811015610542578082015181840152602081019050610527565b50505050905090810190601f16801561056f5780820380516001836020036101000a031916815260200191505b5088810384528b818151815260200191508051906020019080838360005b838110156105a857808201518184015260208101905061058d565b50505050905090810190601f1680156105d55780820380516001836020036101000a031916815260200191505b5088810383528a818151815260200191508051906020019080838360005b8381101561060e5780820151818401526020810190506105f3565b50505050905090810190601f16801561063b5780820380516001836020036101000a031916815260200191505b50888103825289818151815260200191508051906020019060200280838360005b8381101561067757808201518184015260208101905061065c565b505050509050019f5050505050505050505050505050505060405180910390f35b6106a0611366565b604051808273ffffffffffffffffffffffffffffffffffffffff1673ffffffffffffffffffffffffffffffffffffffff16815260200191505060405180910390f35b610a8e600480360360c08110156106f857600080fd5b810190808035906020019064010000000081111561071557600080fd5b82018360208201111561072757600080fd5b8035906020019184600183028401116401000000008311171561074957600080fd5b91908080601f016020809104026020016040519081016040528093929190818152602001838380828437600081840152601f19601f820116905080830192505050505050509192919290803590602001906401000000008111156107ac57600080fd5b8201836020820111156107be57600080fd5b803590602001918460018302840111640100000000831117156107e057600080fd5b91908080601f016020809104026020016040519081016040528093929190818152602001838380828437600081840152601f19601f8201169050808301925050505050505091929192908035906020019064010000000081111561084357600080fd5b82018360208201111561085557600080fd5b8035906020019184600183028401116401000000008311171561087757600080fd5b91908080601f016020809104026020016040519081016040528093929190818152602001838380828437600081840152601f19601f820116905080830192505050505050509192919290803590602001906401000000008111156108da57600080fd5b8201836020820111156108ec57600080fd5b8035906020019184600183028401116401000000008311171561090e57600080fd5b91908080601f016020809104026020016040519081016040528093929190818152602001838380828437600081840152601f19601f8201169050808301925050505050505091929192908035906020019064010000000081111561097157600080fd5b82018360208201111561098357600080fd5b803590602001918460018302840111640100000000831117156109a557600080fd5b91908080601f016020809104026020016040519081016040528093929190818152602001838380828437600081840152601f19601f82011690508083019250505050505050919291929080359060200190640100000000811115610a0857600080fd5b820183602082011115610a1a57600080fd5b80359060200191846001830284011164010000000083111715610a3c57600080fd5b91908080601f016020809104026020016040519081016040528093929190818152602001838380828437600081840152601f19601f82011690508083019250505050505050919291929050505061138c565b604051808215151515815260200191505060405180910390f35b610ab06116bf565b6040518082815260200191505060405180910390f35b60016020528060005260406000206000915054906101000a900460ff1681565b60008181548110610af357fe5b9060005260206000209060070201600091509050806000018054600181600116156101000203166002900480601f016020809104026020016040519081016040528092919081815260200182805460018160011615610100020316600290048015610b9f5780601f10610b7457610100808354040283529160200191610b9f565b820191906000526020600020905b815481529060010190602001808311610b8257829003601f168201915b505050505090806001018054600181600116156101000203166002900480601f016020809104026020016040519081016040528092919081815260200182805460018160011615610100020316600290048015610c3d5780601f10610c1257610100808354040283529160200191610c3d565b820191906000526020600020905b815481529060010190602001808311610c2057829003601f168201915b505050505090806002018054600181600116156101000203166002900480601f016020809104026020016040519081016040528092919081815260200182805460018160011615610100020316600290048015610cdb5780601f10610cb057610100808354040283529160200191610cdb565b820191906000526020600020905b815481529060010190602001808311610cbe57829003601f168201915b505050505090806003018054600181600116156101000203166002900480601f016020809104026020016040519081016040528092919081815260200182805460018160011615610100020316600290048015610d795780601f10610d4e57610100808354040283529160200191610d79565b820191906000526020600020905b815481529060010190602001808311610d5c57829003601f168201915b505050505090806004018054600181600116156101000203166002900480601f016020809104026020016040519081016040528092919081815260200182805460018160011615610100020316600290048015610e175780601f10610dec57610100808354040283529160200191610e17565b820191906000526020600020905b815481529060010190602001808311610dfa57829003601f168201915b505050505090806005018054600181600116156101000203166002900480601f016020809104026020016040519081016040528092919081815260200182805460018160011615610100020316600290048015610eb55780601f10610e8a57610100808354040283529160200191610eb5565b820191906000526020600020905b815481529060010190602001808311610e9857829003601f168201915b5050505050905086565b6000606080606080606080606060008080549050111561135a576000808a81548110610ee757fe5b906000526020600020906007020190508981600001826001018360020184600301856004018660050187600601868054600181600116156101000203166002900480601f016020809104026020016040519081016040528092919081815260200182805460018160011615610100020316600290048015610fa95780601f10610f7e57610100808354040283529160200191610fa9565b820191906000526020600020905b815481529060010190602001808311610f8c57829003601f168201915b50505050509650858054600181600116156101000203166002900480601f0160208091040260200160405190810160405280929190818152602001828054600181600116156101000203166002900480156110455780601f1061101a57610100808354040283529160200191611045565b820191906000526020600020905b81548152906001019060200180831161102857829003601f168201915b50505050509550848054600181600116156101000203166002900480601f0160208091040260200160405190810160405280929190818152602001828054600181600116156101000203166002900480156110e15780601f106110b6576101008083540402835291602001916110e1565b820191906000526020600020905b8154815290600101906020018083116110c457829003601f168201915b50505050509450838054600181600116156101000203166002900480601f01602080910402602001604051908101604052809291908181526020018280546001816001161561010002031660029004801561117d5780601f106111525761010080835404028352916020019161117d565b820191906000526020600020905b81548152906001019060200180831161116057829003601f168201915b50505050509350828054600181600116156101000203166002900480601f0160208091040260200160405190810160405280929190818152602001828054600181600116156101000203166002900480156112195780601f106111ee57610100808354040283529160200191611219565b820191906000526020600020905b8154815290600101906020018083116111fc57829003601f168201915b50505050509250818054600181600116156101000203166002900480601f0160208091040260200160405190810160405280929190818152602001828054600181600116156101000203166002900480156112b55780601f1061128a576101008083540402835291602001916112b5565b820191906000526020600020905b81548152906001019060200180831161129857829003601f168201915b505050505091508080548060200260200160405190810160405280929190818152602001828054801561133d57602002820191906000526020600020905b8160009054906101000a900473ffffffffffffffffffffffffffffffffffffffff1673ffffffffffffffffffffffffffffffffffffffff16815260200190600101908083116112f3575b50505050509050985098509850985098509850985098505061135b565b5b919395975091939597565b600260009054906101000a900473ffffffffffffffffffffffffffffffffffffffff1681565b600080875111611404576040517f08c379a000000000000000000000000000000000000000000000000000000000815260040180806020018281038252601c8152602001807f70617469656e744e6f204e756d6265722069732072657175697265640000000081525060200191505060405180910390fd5b600086511161147b576040517f08c379a00000000000000000000000000000000000000000000000000000000081526004018080602001828103825260188152602001807f50617469656e74204e616d65206973207265717569726564000000000000000081525060200191505060405180910390fd5b6009875111156114f3576040517f08c379a00000000000000000000000000000000000000000000000000000000081526004018080602001828103825260158152602001807f70617469656e744e6f204c656e6774682069732039000000000000000000000081525060200191505060405180910390fd5b6114fb6116cb565b7f6f32500025918c94a04c1946df9cddf4638e096a856c3d8f0d23f1dd15d7680b60405160405180910390a1878160000181905250868160200181905250858160400181905250848160600181905250838160800181905250828160a001819052506000819080600181540180825580915050906001820390600052602060002090600702016000909192909190915060008201518160000190805190602001906115a7929190611708565b5060208201518160010190805190602001906115c4929190611708565b5060408201518160020190805190602001906115e1929190611708565b5060608201518160030190805190602001906115fe929190611708565b50608082015181600401908051906020019061161b929190611708565b5060a0820151816005019080519060200190611638929190611708565b5060c0820151816006019080519060200190611655929190611788565b5050505060018060003373ffffffffffffffffffffffffffffffffffffffff1673ffffffffffffffffffffffffffffffffffffffff16815260200190815260200160002060006101000a81548160ff02191690831515021790555060019150509695505050505050565b60008080549050905090565b6040518060e00160405280606081526020016060815260200160608152602001606081526020016060815260200160608152602001606081525090565b828054600181600116156101000203166002900490600052602060002090601f016020900481019282601f1061174957805160ff1916838001178555611777565b82800160010185558215611777579182015b8281111561177657825182559160200191906001019061175b565b5b5090506117849190611812565b5090565b828054828255906000526020600020908101928215611801579160200282015b828111156118005782518260006101000a81548173ffffffffffffffffffffffffffffffffffffffff021916908373ffffffffffffffffffffffffffffffffffffffff160217905550916020019190600101906117a8565b5b50905061180e9190611837565b5090565b61183491905b80821115611830576000816000905550600101611818565b5090565b90565b61187791905b8082111561187357600081816101000a81549073ffffffffffffffffffffffffffffffffffffffff02191690555060010161183d565b5090565b9056fea265627a7a7231582043ddc39512c77ce0234109f1219007f0e33385e3446cd6519bc84da4c93327f764736f6c63430005100032",
  "source": "pragma solidity ^0.5.0;\n\ncontract Medical {\n\n    struct Record {\n\n        string patientNo;\n\n        string name;\n        \n        string gender;\n        \n        string hospital;\n\n        string blood;\n\n        string diabetic;\n\n        address[] patientsAddress;\n\n    }\n\n \n\n    /** @dev Records array */\n\n    Record[] public records;\n\n    \n\n    mapping(address => bool) public patients;\n\n        address public owner = msg.sender;\n\n    event CreatedPatientEvent();\n\n        /** @dev Restrict read access to contract’s state by other contracts */\n\n    modifier onlyBy(address _account)\n\n    {\n\n        require(\n\n            msg.sender == _account,\n\n            \"Sender not authorized.\"\n\n        );\n\n        _;\n\n    }\n\n        \n\n    /** @dev Returns the number of patients. */\n\n    function getNumPatients() public view \n\n        //onlyBy(owner)\n\n        returns (uint) {\n\n            return records.length;\n\n    }\n\n    \n\n    /** @dev Adds a new patient record. */\n\n     function addPatient(\n     string memory _patientNo,\n     string memory _name, \n     string memory _gender, \n     string memory _hospital, \n     string memory _blood,\n     string memory _diabetic)  public \n\n     //onlyBy(owner)  //restrict access\n\n     returns (bool) {\n\n        require(bytes(_patientNo).length > 0, \"patientNo Number is required\"); //check the admission number is entered\n\n        require(bytes(_name).length > 0, \"Patient Name is required\"); //check the patient name is entered\n\n        require(bytes(_patientNo).length <= 9, \"patientNo Length is 9\"); //check the admission number length is 9 characters\n\n        \n\n        Record memory record;\n\n        emit CreatedPatientEvent();  //update the event\n\n        \n\n        record.patientNo = _patientNo;\n\n        record.name = _name;\n        \n        record.gender = _gender;\n\n        record.hospital = _hospital;\n\n        record.blood = _blood;\n\n        record.diabetic = _diabetic;\n\n        \n\n        records.push(record); //add the patient record\n\n        \n\n        patients[msg.sender] = true; //update to true\n\n        return true;\n\n    }\n\n \n\n    /** @dev Gets the patient record based on the record id. */\n\n    function getPatient(uint recordInt) public view \n\n    //onlyBy(owner)  //restrict access\n\n    returns (\n        uint, \n        string memory, \n        string memory, \n        string memory, \n        string memory, \n        string memory, \n        string memory,\n        address[] memory) {\n\n        if (records.length > 0) {  //check the record length is greater than 0\n\n            Record storage p = records[recordInt]; // Get the record\n\n            return (recordInt, p.patientNo, p.name ,p.gender ,p.hospital, p.blood, p.diabetic,  p.patientsAddress);  //return the record set based on the id\n\n        }\n\n    }\n\n}\n",
  "sourcePath": "/home/codebind/Documents/Healthcare/contracts/Medical.sol",
  "compiler": {
    "name": "solc",
    "version": "0.5.16+commit.9c3226ce.Emscripten.clang"
  },
  "schemaVersion": "3.2.1",
  "updatedAt": "2020-07-16T04:52:34.676Z",
  "networkType": "ethereum",
  "devdoc": {
    "methods": {
      "addPatient(string,string,string,string,string,string)": {
        "details": "Adds a new patient record. "
      },
      "getNumPatients()": {
        "details": "Returns the number of patients. "
      },
      "getPatient(uint256)": {
        "details": "Gets the patient record based on the record id. "
      }
    }
  },
  "userdoc": {
    "methods": {}
  }
}